:02000000FE2BD5
:1007720083168601831286018E0108300E02031849
:10078200DF2B01308C000E0AC82B03108C0DFF3EAC
:10079200031DC62B0C08860082308D00DD308C00D4
:1007A2008C0BD12B8D0BD12BD62B013083128C00CD
:1007B2000C088E0708300E02031CC22B06308C0078
:1007C2000C088F000F080319BD2B01308C000F0A93
:1007D200EC2B03108C0DFF3E031DEA2B0C08860048
:1007E20082308D00DD308C008C0BF52B8D0BF52BC0
:0E07F200FA2B013083128F02E32B8301B92B07
:02400E00F93F78
:00000001FF
