:020000000B28CB
:10000800CE00030E83129A000A089B000E280C28C3
:10001800830161280310861B031400300318013084
:100028008C008D010310061B0314003003180130E7
:100038008E008F010310861A031400300318013054
:10004800900091010030061A01300B059200013032
:1000580012059300100813049400110895000E0867
:10006800140496000F08150497000C08160498004D
:100078000D081704990018081904031956280514BF
:100088000B308E0026308D005D308C008C0B4A289A
:100098008D0B4A288E0B4A285128FE3083128C007B
:1000A8000C088505FE308C000C088B051B088A009F
:1000B8001A0E8300CE0E4E0E09008B178B15F030EA
:1000C80083168600FE3083129C001C088316850563
:1000D800831285018312861482309D00DD309C00D6
:1000E8009C0B74289D0B74287928FD3083129C0082
:1000F8001C08860582309D00DD309C009C0B822800
:080108009D0B822887286E2858
:02400E00F93F78
:00000001FF
