:02000000EA2BE9
:10077E003F3406345B344F3466346D347C34073486
:10078E007F346F34831686018312990119080C3E4B
:10079E0084008313000886000630980013309700FB
:1007AE00AD309600960BD92B970BD92B980BD92BD6
:1007BE00E02B013083129600160899070A301902B1
:1007CE000318CB2BCD2BBF238C00C0238D00C12350
:1007DE008E00C2238F00C3239000C4239100C52333
:1007EE009200C6239300C7239400C823950083016B
:0207FE00C92B05
:02400E00F93F78
:00000001FF
