:02000000FE2BD5
:10064C008F0183168601DD2B03308E008A308D00DE
:10065C0055308C008C0B302B8D0B302B8E0B302BA4
:10066C00372B013083128C000C088F07E02B282BC2
:10067C000614DD2B8614DD2B0615DD2B8615DD2BE4
:10068C000616DD2B8616DD2B0617DD2B8617DD2BCC
:10069C008F017F308C000C08860502308E004530AF
:1006AC008D00A9308C008C0B592B8D0B592B8E0B7C
:1006BC00592B602B83120608BF39860002308E003E
:1006CC0045308D00A9308C008C0B6A2B8D0B6A2B5E
:1006DC008E0B6A2B712BDF3083128C000C08860575
:1006EC0002308E0045308D00A9308C008C0B7C2B99
:1006FC008D0B7C2B8E0B7C2B832BEF3083128C0081
:10070C000C08860502308E0045308D00A9308C0017
:10071C008C0B8E2B8D0B8E2B8E0B8E2B952BF730F3
:10072C0083128C000C08860502308E0045308D003B
:10073C00A9308C008C0BA02B8D0BA02B8E0BA02B1F
:10074C00A72BFB3083128C000C08860502308E0020
:10075C0045308D00A9308C008C0BB22B8D0BB22B3D
:10076C008E0BB22BB92BFD3083128C000C08860536
:10077C0002308E0045308D00A9308C008C0BC42BC0
:10078C008D0BC42B8E0BC42BCB2BFE3083128C0009
:10079C000C08860502308E0045308D00A9308C0087
:1007AC008C0BD62B8D0BD62B8E0BD62BDD2B8312D5
:1007BC0085192A2B0F08003A03193D2B013A03190E
:1007CC003E2B033A0319402B013A0319422B073AEB
:1007DC000319442B013A0319462B033A0319482BEE
:1007EC00013A03194A2B0F3A03194C2B4E2B0028B4
:0407FC008301262B24
:02400E00F93F78
:00000001FF
