:020000000B28CB
:10000800CE00030E83128C000A088D0032280C28BB
:1000180083128F019001830111288B178B16FE30F4
:100028008E000E0883168605073083128E000E0890
:1000380083168104F73083128E000E08831681051B
:10004800DF3083128E000E0883168105D9308312A3
:100058008100FE308E000E08860531280B1D4628CB
:1000680001308F070318900A0030900732300F06CE
:100078001004031D43288F01900101308606D930F2
:1000880081000B110D088A000C0E8300CE0E4E0E57
:0200980009005D
:02400E00F93F78
:00000001FF
