:02000000EA2BE9
:100746003F3406345B344F3466346D347C340734BE
:100756007F346F34831685018601831285018601F5
:10076600980199010510851419080C3E840083131D
:100776000008860034309700F1309600960BC12BA6
:10078600970BC12BC62B83120514851018080C3E37
:10079600840083130008860034309700F1309600F9
:1007A600960BD32B970BD32BD82B013083129600A5
:1007B600160899070A301902031CB52B013096005A
:1007C600160898070A3018020318B32BB42BA32374
:1007D6008C00A4238D00A5238E00A6238F00A723BB
:1007E6009000A8239100A9239200AA239300AB238B
:0A07F6009400AC2395008301AD2BA5
:02400E00F93F78
:00000001FF
